{
  "contractName": "ExpenseManagerContract",
  "abi": [
    {
      "inputs": [
        {
          "internalType": "address",
          "name": "",
          "type": "address"
        }
      ],
      "name": "accountsBalance",
      "outputs": [
        {
          "internalType": "uint256",
          "name": "",
          "type": "uint256"
        }
      ],
      "stateMutability": "view",
      "type": "function",
      "constant": true
    },
    {
      "inputs": [],
      "name": "balance",
      "outputs": [
        {
          "internalType": "uint256",
          "name": "",
          "type": "uint256"
        }
      ],
      "stateMutability": "view",
      "type": "function",
      "constant": true
    },
    {
      "inputs": [
        {
          "internalType": "address",
          "name": "sender",
          "type": "address"
        }
      ],
      "name": "setDeposit",
      "outputs": [],
      "stateMutability": "payable",
      "type": "function",
      "payable": true
    },
    {
      "inputs": [],
      "name": "getBalance",
      "outputs": [
        {
          "internalType": "uint256",
          "name": "",
          "type": "uint256"
        }
      ],
      "stateMutability": "view",
      "type": "function",
      "constant": true
    },
    {
      "inputs": [
        {
          "internalType": "address",
          "name": "sender",
          "type": "address"
        },
        {
          "internalType": "address",
          "name": "recipient",
          "type": "address"
        },
        {
          "internalType": "uint256",
          "name": "amount",
          "type": "uint256"
        }
      ],
      "name": "transfer",
      "outputs": [],
      "stateMutability": "nonpayable",
      "type": "function"
    },
    {
      "inputs": [
        {
          "internalType": "address",
          "name": "account",
          "type": "address"
        }
      ],
      "name": "getAccountBalance",
      "outputs": [
        {
          "internalType": "uint256",
          "name": "",
          "type": "uint256"
        }
      ],
      "stateMutability": "view",
      "type": "function",
      "constant": true
    }
  ],
  "bytecode": "0x608060405234801561001057600080fd5b50610610806100206000396000f3fe6080604052600436106100555760003560e01c806312065fe01461005a5780633b80938e1461008557806360e20a24146100a157806393423e9c146100de578063b69ef8a81461011b578063beabacc814610146575b600080fd5b34801561006657600080fd5b5061006f61016f565b60405161007c919061039c565b60405180910390f35b61009f600480360381019061009a919061041a565b610178565b005b3480156100ad57600080fd5b506100c860048036038101906100c3919061041a565b6101e9565b6040516100d5919061039c565b60405180910390f35b3480156100ea57600080fd5b506101056004803603810190610100919061041a565b610201565b604051610112919061039c565b60405180910390f35b34801561012757600080fd5b5061013061024a565b60405161013d919061039c565b60405180910390f35b34801561015257600080fd5b5061016d60048036038101906101689190610473565b610250565b005b60008054905090565b34600160008373ffffffffffffffffffffffffffffffffffffffff1673ffffffffffffffffffffffffffffffffffffffff16815260200190815260200160002060008282546101c791906104f5565b92505081905550346000808282546101df91906104f5565b9250508190555050565b60016020528060005260406000206000915090505481565b6000600160008373ffffffffffffffffffffffffffffffffffffffff1673ffffffffffffffffffffffffffffffffffffffff168152602001908152602001600020549050919050565b60005481565b80600160008573ffffffffffffffffffffffffffffffffffffffff1673ffffffffffffffffffffffffffffffffffffffff1681526020019081526020016000205410156102d2576040517f08c379a00000000000000000000000000000000000000000000000000000000081526004016102c990610586565b60405180910390fd5b80600160008573ffffffffffffffffffffffffffffffffffffffff1673ffffffffffffffffffffffffffffffffffffffff168152602001908152602001600020600082825461032191906105a6565b9250508190555080600160008473ffffffffffffffffffffffffffffffffffffffff1673ffffffffffffffffffffffffffffffffffffffff168152602001908152602001600020600082825461037791906104f5565b92505081905550505050565b6000819050919050565b61039681610383565b82525050565b60006020820190506103b1600083018461038d565b92915050565b600080fd5b600073ffffffffffffffffffffffffffffffffffffffff82169050919050565b60006103e7826103bc565b9050919050565b6103f7816103dc565b811461040257600080fd5b50565b600081359050610414816103ee565b92915050565b6000602082840312156104305761042f6103b7565b5b600061043e84828501610405565b91505092915050565b61045081610383565b811461045b57600080fd5b50565b60008135905061046d81610447565b92915050565b60008060006060848603121561048c5761048b6103b7565b5b600061049a86828701610405565b93505060206104ab86828701610405565b92505060406104bc8682870161045e565b9150509250925092565b7f4e487b7100000000000000000000000000000000000000000000000000000000600052601160045260246000fd5b600061050082610383565b915061050b83610383565b9250828201905080821115610523576105226104c6565b5b92915050565b600082825260208201905092915050565b7f496e73756666696369656e742062616c616e6365000000000000000000000000600082015250565b6000610570601483610529565b915061057b8261053a565b602082019050919050565b6000602082019050818103600083015261059f81610563565b9050919050565b60006105b182610383565b91506105bc83610383565b92508282039050818111156105d4576105d36104c6565b5b9291505056fea264697066735822122050f0fb2b4923edad6a5a4182f4726eb3ae733fa0e8809f5b3f52417385d6c82d64736f6c63430008130033",
  "immutableReferences": {},
  "source": "// SPDX-License-Identifier: MIT\r\npragma solidity ^0.8.19;\r\n\r\ncontract ExpenseManagerContract {\r\n    uint256 public balance;\r\n\r\n    // Mapping to keep track of balances by account\r\n    mapping(address => uint256) public accountsBalance;\r\n\r\n    // Deposit function to increase balance of the contract\r\n    function setDeposit(address sender) public payable {\r\n        accountsBalance[sender] += msg.value;\r\n        balance += msg.value;\r\n    }\r\n\r\n    // Get the balance of the contract\r\n    function getBalance() public view returns (uint256) {\r\n        return balance;\r\n    }\r\n\r\n    // Transfer funds between two addresses\r\n    function transfer(address sender, address recipient, uint256 amount) public {\r\n        require(accountsBalance[sender] >= amount, \"Insufficient balance\");\r\n        accountsBalance[sender] -= amount;\r\n        accountsBalance[recipient] += amount;\r\n    }\r\n\r\n    // Get the balance of a specific account\r\n    function getAccountBalance(address account) public view returns (uint256) {\r\n        return accountsBalance[account];\r\n    }\r\n}\r\n",
  "sourcePath": "C:\\Users\\hp\\Desktop\\kais_blockchain\\mytruffle\\contracts\\ExpenseManagerContract.sol",
  "compiler": {
    "name": "solc",
    "version": "0.8.19+commit.7dd6d404.Emscripten.clang"
  },
  "schemaVersion": "3.4.16",
  "updatedAt": "2025-01-07T12:46:16.618Z",
  "networkType": "ethereum",
  "devdoc": {
    "kind": "dev",
    "methods": {},
    "version": 1
  },
  "userdoc": {
    "kind": "user",
    "methods": {},
    "version": 1
  }
}